:020000040800F2
:10000000780D0020890F0008F1040008F3040008AF
:10001000F5040008F7040008F904000800000000D7
:10002000000000000000000000000000FB040008C9
:10003000FD04000800000000FF040008010500089E
:10004000A30F0008A30F0008A30F0008A30F0008C8
:10005000A30F0008A30F0008910D0008B10D0008C0
:10006000A30F0008A30F0008A30F0008A30F0008A8
:10007000A30F0008A30F0008A30F0008A30F000898
:10008000A30F0008A30F0008A30F0008A30F000888
:10009000A30F0008A30F0008A30F0008A30F000878
:1000A000A30F0008A30F0008A30F0008A30F000868
:1000B000A30F000821040008DB030008A30F0008B9
:1000C000A30F0008A30F0008A30F0008A30F000848
:1000D000A30F0008210F0008A30F0008A30F0008BA
:1000E000A30F0008A30F0008A30F0008DFF810D02B
:1000F00006F07EFC0048004771020008AFF3008064
:10010000780D002070B5DC4800240188B1F5FA6F45
:1001100001D980200CE0008806F0B9FA0022D74B04
:1001200006F02FFA072206F09BFA06F0BDFAC0B2DD
:10013000C0F18000C5B20721002000F040FC05E0BE
:100140000121FF2000F000FC641CE4B2AC42F7D3B4
:1001500070BD10B58AB0CAA20021282000F0D2FCE0
:10016000CAA20221282000F0CDFCC8A20421282028
:1001700000F0C8FC0721002000F021FC0024012130
:10018000002000F0E1FB641CE4B2802CF7D3C24CE9
:10019000C2A16846D4E9062306F098FCB648028856
:1001A000C1A103A806F092FCB4F90620C0A106A8DC
:1001B00006F08CFC00221146104600F0BCFC012227
:1001C0000021102000F0B7FC3A220021202000F08E
:1001D00045FC6A460021282000F094FC02221146CA
:1001E000002000F0A8FC03220221102000F0A3FC54
:1001F0003A220221202000F031FC03AA022128200B
:1002000000F080FC04221146002000F094FC05223E
:100210000421102000F08FFC3A220421202000F05D
:100220001DFC06AA0421282000F06CFC06220221F5
:100230005F2000F080FC072202216F2000F07BFC91
:100240002078012810D09BA20421642000F05AFCE1
:10025000FFF758FF6078012808D08BA204214120C5
:1002600000F050FC0AB010BD93A2EDE793A2F5E7B1
:100270004FF4A06001F0BEFA00F0B0FD4FF4E130A1
:1002800000F002FE00F035FB00F0E6F900F01AFA8B
:1002900000F048FD00F0DBFA00F0F8FADFF8208209
:1002A0000026C8F894610127C8F8907100F03CFA64
:1002B000002000F0BCFA00F082FC00F0B1FB81A24B
:1002C0000021322000F01EFC7FA202210A2000F053
:1002D00019FC00245FF0140504F10800C2B205EB1C
:1002E0000410C0B2042100F026FC641CE4B2062C09
:1002F000F2D34FF47A74204600F09EFD204600F0C1
:100300009BFD00F08DFB744805F057FF00217248FB
:1003100005F0D6FF4546DFF8C491DFF85CA1DFF8B1
:10032000C0815D4CD5F8080128B100202070D9F8B3
:10033000300110B104E00120F8E7E0881430E080DB
:10034000B4F90600642800DDE680634806F05BF837
:10035000D5F80801A8B300212170D4E902021044A5
:100360004008206119282FD9BAF800205046B2F56C
:10037000FA7F29D241B367700F2161800188B1F5FE
:10038000C87F01D20A2161800188B1F5967F01D230
:10039000062161800188C82901D20321618000887B
:1003A000642800D267800121404601F030FE2078A9
:1003B000012810D05FF0000000F039FAFFF7C9FE05
:1003C000B0E7FFE70121C7E76670C5F89461C5F89B
:1003D00090710021E8E7A079EEE770B5414D012169
:1003E000284602F03EF8002819D02B4CD4E902012F
:1003F000084406F04CF900223B4B06F0C2F84FF0DF
:1004000033323A4B06F04BF8C4E906010020A060F5
:10041000E0602846BDE87040012102F02EB870BDB2
:1004200010B52F4C0121204602F01BF8002821D0E6
:1004300019498888401C80B288804A8890420FD928
:100440001F4AD2F8940188B15FF00000C2F894010D
:10045000D2F8900160B10020C2F89001002088809D
:100460002046BDE81040012102F007B80120EDE769
:100470000120F1E710BD0000CA06002000409F40A7
:10048000202020202020202020202000202020208C
:10049000202020200000000000000020252E316CCC
:1004A000666D6D2F7300000025646D6D0000000007
:1004B000256400004F4646004F4E200021212100B8
:1004C00000802142572E57005741524E494E472037
:1004D00053595354454D0000940700200000214219
:1004E000000400400008004000005440338369408D
:1004F0007047FEE7FEE7FEE7FEE77047704770478C
:10050000704700000CB500214B4801910091026832
:1005100042F4803202604FF4A063026802F40032B9
:100520000092019A521C0192009A12B9019A9A42C1
:10053000F3D10268920333D5012100913F490A6843
:1005400042F010020A600A6822F003020A600A6898
:1005500042F002020A6041684160416841604168BE
:1005600041F480614160416821F47C11416041683F
:1005700041F4E8114160016841F080710160016857
:100580008901FCD5416821F003014160416841F0D7
:10059000020141604168C1F381010229FAD10CBD19
:1005A00000910CBD244810B5016841F001010160C3
:1005B0004168234A114041600168224A11400160AC
:1005C000016821F480210160416821F4FE0141604D
:1005D0004FF41F018160FFF795FF1B494FF000604A
:1005E000086010BD144910B54868184A10F00C0393
:1005F000174803D0042B01D0082B0AD002604968A9
:10060000134AC1F30311121D515C0268CA40026013
:1006100010BD4A684B6802F470124FF0020413F4E4
:10062000803F04EB924202D04B689B0301D5094BFB
:1006300000E0064B5A43E1E7001002400020024070
:100640000000FFF8FFFFF6FE08ED00E000127A0060
:100650002000002000093D001FB50121022000F00C
:10066000EFFEB34C204601F091F942F20F70ADF865
:10067000040040F2CF20ADF800000021ADF80610D4
:10068000ADF802106946204601F018FA0122114621
:10069000204601F0D1FC0121204601F0B8FC1D20CC
:1006A0008DF80C0001218DF80D1003208DF80E003F
:1006B0008DF80F1003A801F0A2F80021204601F0E8
:1006C000A6FC1FBD1FB50121042000F0B9FE1E20AD
:1006D0008DF80C0000248DF80D4001208DF80E00DF
:1006E0008DF80F0003A801F08AF842F20F70ADF800
:1006F000040041F61F40ADF80000ADF80640ADF82B
:1007000002408C4C6946204601F0D8F9012211467E
:10071000204601F091FC0121204601F0AEFE0121AE
:10072000204601F074FC1FBDF0B5012189B00846D8
:1007300000F086FE0121042000F079FE0220ADF8D1
:10074000100018247C4F8DF8134003258DF81250AB
:1007500004A9384600F081FC0126ADF810608DF840
:1007600013408DF8125004A9384600F076FC04209E
:10077000ADF810008DF813408DF8125004A93846DA
:1007800000F06BFC0820ADF810008DF813408DF8D8
:10079000125004A9384600F060FCB507284601F065
:1007A000F5F840F2E730ADF8180040F2CF20ADF890
:1007B00014000024ADF81A40ADF8164005A92846EB
:1007C00001F07CF96020ADF80000ADF80260ADF8F2
:1007D0000840ADF806406946284601F0A8F908210E
:1007E000284601F0F2FCADF806406946284601F0C3
:1007F000D3F90821284601F0F9FCADF80640694616
:10080000284601F005FA0821284601F0F9FCADF868
:1008100006406946284601F035FA0821284601F0CD
:10082000F5FC0121284601F0F2FB09B0F0BD70B5DE
:1008300000EB800044004FF080452146284601F03F
:10084000E8FD21462846BDE8704001F0E4BD38B51A
:100850000121082000F0EBFD1020ADF800008DF81C
:1008600003000320354C8DF802006946204600F055
:10087000F4FB1021204600F060FC0121084600F046
:10088000D6FD01212E4800F077FC38BD38B5012196
:10089000082000F0CCFD2020ADF8000010208DF8DD
:1008A00003000320254C8DF802006946204600F025
:1008B000D4FB2021204600F040FC38BD10B5214C6F
:1008C000D4F82C01012803D0D4F8300101280AD132
:1008D0000A2000F0B1FAD4F82C01012805D0D4F890
:1008E0003001012803D0002010BD022010BD0320DC
:1008F00010BD38B50121082000F099FD0420ADF8A5
:10090000000048248DF8034069460C4800F0A5FB20
:100910000121042000F08BFD4FF4C050ADF8000021
:100920008DF803406946044800F097FB38BD00008D
:10093000000400400008004000080140000C014095
:1009400000013000000021422DE9F047EA4D064643
:100950004FF4805A00295146284602D000F0EBFBA4
:1009600001E000F0EAFB4FF400584146284600F051
:10097000E4FB00244FF400794FF480773946284691
:1009800000F0DBFB30064946284602D500F0D3FBD9
:1009900001E000F0D2FB3946284600F0CCFB70069F
:1009A000641C060EE4B2082CE8D34146284600F049
:1009B000C2FB51462846BDE8F04700F0BCBB10B56D
:1009C0000446B031C8B20021FFF7BEFFA41CC4F337
:1009D000031040F010000021FFF7B6FF04F00F00F5
:1009E000BDE810400021AFE710B500218D20FFF7D2
:1009F000ABFF00211420FFF7A7FF0021BDE8104046
:100A0000AF20A1E710B500218D20FFF79DFF002149
:100A10001020FFF799FF0021BDE81040AE2093E7BA
:100A200070B5002404F1B000C0B20021FFF78CFFC4
:100A300000210220FFF788FF00211020FFF784FF2C
:100A4000002501210020FFF77FFF6D1CEDB2802DF6
:100A5000F7D3641CE4B2082CE4D370BD70B5203A1F
:100A60000024D5B27F2802D90020891CC9B2491CB4
:100A7000C9B2FFF7A4FFA14905EB450001EB400512
:100A80000121285DFFF760FF641CE4B2062CF7D358
:100A900070BD0246012000E05043491EC9B2FBD29E
:100AA00070472DE9F0478046002608981D4691467C
:100AB0008A463446470821E0281B401EC1B20A205E
:100AC000FFF7E7FFB9FBF0F00A21B0FBF1F201FB01
:100AD000120026B9691E8C4201DA30B1012630308D
:100AE000C2B207FB0480C0B203E007FB0480C0B2BF
:100AF00020225146FFF7B2FF641CE4B2AC42DBD3C4
:100B0000BDE8F0872DE9F04117460E460446002562
:100B10000CE031462046FFF7A1FF0834E4B2782C00
:100B200002D90024B61CF6B26D1CEDB27A5D002A23
:100B3000EFD1BDE8F0812DE9F04115460E4607469C
:100B4000FFF73DFF6E48002400EB85150121285D6D
:100B5000FFF7FAFE641CE4B2102CF7D3761CF1B256
:100B60003846FFF72CFF00242819012190F82000B7
:100B7000FFF7EAFE641CE4B2102CF5D3D9E72DE9A7
:100B8000F04798461746824600260C46DDF820902E
:100B900012E021465046FFF712FF554608E000BF1D
:100BA00019F806000121761CFFF7CEFE6D1CEDB290
:100BB000BD42F5D3641CE4B24445EAD3A0E738B59E
:100BC0000121082000F033FC4FF44C54ADF80040F4
:100BD00010208DF803000320474D8DF80200694670
:100BE000284600F03AFA2146284600F0A4FA64208C
:100BF00000F022F9642000F01FF9C82000F01CF971
:100C00000021AE20FFF7A0FE00210220FFF79CFE8E
:100C100000211020FFF798FE00214020FFF794FEEE
:100C200000218120FFF790FE0021CF20FFF78CFEEE
:100C30000021A120FFF788FE0021C820FFF784FED5
:100C40000021A620FFF780FE0021A820FFF77CFEF0
:100C500000213F20FFF778FE0021D320FFF774FE2C
:100C600000210846FFF770FE0021D520FFF76CFE3B
:100C700000218020FFF768FE0021D920FFF764FEE5
:100C80000021F120FFF760FE0021DA20FFF75CFE73
:100C900000211220FFF758FE0021DB20FFF754FE51
:100CA00000214020FFF750FE00212020FFF74CFEDE
:100CB00000210220FFF748FE00218D20FFF744FEAF
:100CC00000211420FFF740FE0021A420FFF73CFE86
:100CD0000021A620FFF738FE0021AF20FFF734FEE9
:100CE0000021AF20FFF730FEFFF79AFE00210846F3
:100CF000FFF765FE38BD0000000C0140A873000836
:100D00003400002008B50121082000F090FB0320EA
:100D1000ADF8000048208DF8030069462C4800F02B
:100D20009CF908BD3EB5FFF7EDFF0121084600F034
:100D30007EFB0021012000F048FA0121084600F066
:100D400044FA0320002501908DF8085010208DF8FA
:100D5000090001248DF80A4001A800F0B1FD062029
:100D60008DF800008DF801408DF802408DF80340A9
:100D7000684600F044FD07208DF800008DF8014022
:100D80008DF802508DF80340684600F038FD3EBDF6
:100D900010B5012000F0E4FD002808D00D480168DE
:100DA000491C0160BDE81040012000F0E7BD10BD06
:100DB00010B5022000F0D4FD002808D006480168D4
:100DC000491C0160BDE81040022000F0D7BD10BDF5
:100DD000000C0140080000200C00002010B56FF04E
:100DE000040000F04CFD204820490068B0FBF1F001
:100DF000C1B21F4801EB41020170C2EBC1114FF6B5
:100E0000FF7202EAC101418010BD194909784843C7
:100E10004FF0E021486100228A61086940F001003A
:100E200008610869C30701D0C003FAD5086920F03A
:100E3000010008618A6170470D49498848434FF0B5
:100E4000E021486100228A61086940F001000861E0
:100E50000869C30701D0C003FAD5086920F0010072
:100E600008618A61704700002000002000127A00AB
:100E7000B4030020704740490A885206FCD53E4A18
:100E8000C1B2121D1180704770B5054686B00121B0
:100E900044F2040000F0CBFA4FF40070ADF81000FB
:100EA00003248DF812401820344E8DF8130004A945
:100EB000304600F0D2F83015ADF8100004208DF85F
:100EC000130004A9304600F0C8F825208DF814005E
:100ED0008DF815408DF8164001208DF8170005A8F3
:100EE00000F08DFC0020ADF80400ADF80600ADF870
:100EF0000800ADF80C000C201F4CADF80A0000955E
:100F00006946204600F012FB012240F2255120469E
:100F100000F089FB0121204600F07BFB06B070BD8C
:100F200070B5154C40F22551204600F033FC0028E6
:100F30000ED0204600F0C7FBC2B2114801880B0456
:100F400006D44C044FF0000306D50A2A01D00380D2
:100F500070BD41F400410DE00D2A09D0C1F30D042C
:100F6000084D491C89B22A550180C729EFD870BDA8
:100F700041F48041018070BD00380140000801400B
:100F8000B8030020CC0600200648804706480047EA
:100F9000FEE7FEE7FEE7FEE7FEE7FEE7FEE7FEE729
:100FA000FEE7FEE7A5050008ED000008914910B531
:100FB000884206D10121042000F04BFA00210420D0
:100FC0003BE08D49884206D10121082000F041FA1A
:100FD0000021082031E08949884206D101211020F2
:100FE00000F037FA0021102027E08549884206D119
:100FF0000121202000F02DFA002120201DE0814950
:10100000884206D10121402000F023FA002140202F
:1010100013E07D49884206D10121802000F019FAB1
:101020000021802009E0794988420AD184150121F4
:10103000204600F00EFA00212046BDE8104000F0E6
:1010400008BA10BD10B50121084600F002FA0021CF
:10105000BDE81040012000F0FCB9F0B5CA780025C9
:1010600002F00F03D20601D58A7813430A784FF0B5
:101070000F0E12F0FF0F4FF001021DD0D0F800400C
:101080000F8802FA05F63740B74211D14FEA850CB6
:101090000EFA0CF724EA070703FA0CF43C43CF7866
:1010A000282F02D0482F02D002E0466100E00661FE
:1010B0006D1C082DE4D304600C88FF2C1ED94468F5
:1010C0005FF0000606F1080702FA07F50F882F40C7
:1010D000AF420FD14FEA860C0EFA0CF7BC4303FA6D
:1010E0000CF73C43CF78282F00D14561CF78482FAB
:1010F00000D10561761C082EE4D34460F0BD4FF6A4
:10110000FF710180022181700421C1707047024685
:10111000002092680A4200D001207047806880B2A7
:10112000704702460020D2680A4200D00120704772
:10113000C06880B2704701617047416170470AB171
:101140000161704741617047C160704741F480326E
:101150008261816182618169806970472C4B10B521
:101160001A684FF68074224042EA00100843186063
:1011700010BD2849C8617047F0B5254C002801DA38
:10118000E36900E06368420D120185B2C0F30157C4
:101190009540C0F30346032F05D0C2020AD50322AF
:1011A000B240934307E023F07062636823F07063FA
:1011B000636002E0AB4343F0706201B12A43002850
:1011C00001DAE261F0BD6260F0BD10B58A0721F07E
:1011D00003040F49130F21440F228C689A40944353
:1011E0008C608A68984002438A6010BD0949C1F842
:1011F000DC00704700080140000C01400010014075
:101200000014014000180140001C01400020014072
:101210000000014000002042A448016841F00101A3
:1012200001604168A24A114041600168A14A114031
:101230000160016821F480210160416821F4FE0110
:1012400041604FF41F018160704798490A6822F499
:1012500080320A600A6822F480220A60B0F5803F7A
:1012600007D0B0F5802F03D1086840F4A0200860B3
:101270007047086840F48030F9E7024600205309BF
:101280008A49012B0AD0022B0AD0496A02F01F02B8
:10129000012393400B4200D0012070470968F5E715
:1012A000096AF3E718B500204FF4A06400903120DC
:1012B000FFF7E3FF0099491C0091A14201D00028EB
:1012C000F5D03120FFF7D9FF002800D0012018BD4C
:1012D00076490A6822F0F80242EAC00008607047C6
:1012E000754908607047714A5368084323F47C13BA
:1012F0001843506070477049086670476B4A5168E0
:1013000021F003010143516070476848406800F0D4
:101310000C007047654A516821F0F00101435160AB
:101320007047624A516821F4E0610143516070479F
:101330005E494A6822F4605242EAC0004860704741
:101340005A4A0029517A01D0014300E08143517289
:1013500070475949C1F8D8007047544A516821F480
:1013600040410143516070475049002281F82020DC
:1013700081F82020012802D0042802D1052081F81C
:10138000200070474D490860704748490A6A024387
:101390000A627047494944390860704730B543498B
:1013A0004A6812F00C03464A03D0042B01D0082BE4
:1013B00021D002604A680F23424C03EA1212A35C58
:1013C0000268DA4042604B68072505EA1323E35CB4
:1013D00022FA03F383604B6805EAD323E35CDA4027
:1013E000C2604968032303EA9131231F595CB2FBB1
:1013F000F1F1016130BD4A684B6802F470124FF0A0
:10140000020413F4803F04EB924202D04B689B032A
:1014100001D52D4B00E02A4B5A43CAE7234A002945
:10142000516901D0014300E08143516170471F4A77
:101430000029916901D0014300E081439161704727
:101440001A4A0029D16901D0014300E08143D161EA
:101450007047164A0029D16801D0014300E081435A
:10146000D1607047114A0029116901D0014300E0A1
:1014700081431161704711494039086070470E4936
:10148000C86470470949C87170470848416A41F00B
:10149000807141627047054A0146002092680A4205
:1014A00000D0012070470149887270470010024047
:1014B0000000FFF8FFFFF6FE0000424280044242B7
:1014C00000127A00C403002000093D00C44910B591
:1014D00088420AD101218C032046FFF7BAFF20463B
:1014E000BDE810400021FFF7B4BFBE49884202D1D9
:1014F00001214C0410E0BC49884202D101218C0436
:101500000AE0BA49884202D10121CC0404E0B8497A
:1015100088420AD101210C052046FFF7A3FF20468F
:10152000BDE810400021FFF79DBF10BD30B5044657
:10153000008A85B00D464CF6FF710840E9880143EA
:101540002182A1894EF6F3100140A8882A89104310
:101550006A890A431043A081A08A4FF6FF410840E0
:10156000A9890143A1826846FFF718FF9C4884427D
:1015700001D1039800E00298A189090400EBC001A1
:1015800001EB0010296801D5490000E08900B0FB9B
:10159000F1F06422B0FBF2F109010B096FF01805BC
:1015A0006B4300EB8300A3891D044FF0320306D583
:1015B00003EBC000B0FBF2F000F0070005E003EB26
:1015C0000010B0FBF2F000F00F000843208105B0DE
:1015D00030BD4FF41651016000218180C18001812E
:1015E0000C2242818181704710B5038A4FF2FF02BD
:1015F00013400A884C8822438C88C9880C432243B4
:101600001A43028210BD0021018041808180C18087
:1016100070470029818902D041F4005101E021F492
:1016200000518181704710B5C1F3421301F01F04CE
:101630000121A140012B07D0022B07D01430002A32
:10164000026805D00A4304E00C30F8E71030F6E7F2
:101650008A43026010BD002A828A01D00A4300E05A
:101660008A4382827047028A22F00F020282028A33
:101670000A4302827047828922F400628281828951
:101680000A43828170470029818902D041F002011A
:1016900001E021F0020181817047028A22F02002DC
:1016A0000282028A0A43028270470029018A02D01C
:1016B00041F4804101E021F4804101827047C1F38F
:1016C0000801818070478088C0F3080070478189D5
:1016D00041F0010181817047028BD2B20283028BFB
:1016E00042EA012101837047028B02F47F420283A8
:1016F000028B0A43028370470029818A02D041F09D
:10170000200101E021F02001818270470029818AB7
:1017100002D041F0100101E021F0100181827047F8
:101720000029818A02D041F0080101E021F008017E
:10173000818270470029818902D041F4004101E093
:10174000C1F30E01818170470029818A02D041F4E2
:10175000006101E021F4006181827047828A22F0F9
:1017600004028282828A0A43828270470029818A27
:1017700002D041F0020101E021F0020181827047B4
:101780000246002012880A4200D001207047C94357
:101790000180704730B501F01F0201240025C1F31C
:1017A000421304FA02F2012B0FD0022B0FD0838ACE
:1017B0004FEA11210088134204FA01F400EA040000
:1017C00001D000B10125284630BD8389F0E7038AA6
:1017D000EEE70A0A01219140C943018070470000E9
:1017E000003801400044004000480040004C0040E8
:1017F000005000402849084328490860704770B5E8
:101800000F23C47801780122F4B1244C2468457870
:1018100004F4E064C4F5E064240AC4F10406E3407F
:101820008478B5401C402C4301F1E021230181F86C
:101830000034007800F01F018A404009800000F168
:10184000E020C0F8002170BD01F01F00824048096F
:10185000800000F1E020C0F8802170BD104A1140E6
:1018600001430E48001F016070470C4A121D0029F9
:10187000116801D0014300E08143116070474FF0CF
:10188000E0210428086903D020F0040008617047B3
:1018900040F00400FAE700000000FA050CED00E05B
:1018A00080FFFF1F374900200860091D0860091DDF
:1018B0000860091D086033493348143108607047D7
:1018C00030B530498379026853B30B6893430B609A
:1018D0000A1D13680468A343136002790A4413685D
:1018E000046823431360274A083213680468A3433B
:1018F0001360131D1C680568AC431C604479102CF0
:1019000005D021440A68006802430A6030BD1168AE
:10191000046821431160196800680143196030BDF3
:101920000079084401689143016030BD00210160E5
:1019300001710C22427181717047124910310A689D
:1019400002430A60704701460E4A002014321268B2
:101950000A4200D0012070470A49143108607047DC
:10196000084A014600201268064B0A4014331B68DF
:101970000B4202D0002A00D00120704701491431E7
:101980000860704700040140FFFF0F00F94910B5DF
:10199000884202D10121C41486E0B0F1804F09D001
:1019A000F54988420DD101210220FFF75BFD00219E
:1019B000022064E001210846FFF754FD00210120C8
:1019C0005DE0EE49884206D101210420FFF74AFD7F
:1019D0000021042053E0EA49884206D10121082071
:1019E000FFF740FD0021082049E0E649884206D182
:1019F00001211020FFF736FD002110203FE0E249D1
:101A0000884206D101212020FFF72CFD0021202053
:101A100035E0DE49884202D10121441444E0DC492A
:101A2000884202D10121CC043EE0DA49884202D149
:101A300001210C0538E0D849884202D101214C052A
:101A400032E0D649884206D101214020FFF70AFD45
:101A50000021402013E0D249884206D10121802094
:101A6000FFF700FD0021802009E0CE4988420AD11D
:101A7000841501212046FFF7F5FC00212046BDE832
:101A80001040FFF7EFBCC849884202D101210C0485
:101A90000AE0C649884202D101214C0404E0C4494D
:101AA00088420AD101218C042046FFF7D2FC20464F
:101AB000BDE810400021FFF7CCBC10BD30B5028856
:101AC000AC4BB24C98420DD0A0420BD0B0F1804F3D
:101AD00008D0A94DA84205D0A84DA84202D0A84DD3
:101AE000A84203D122F070054A882A43A54DA84296
:101AF00006D0A54DA84203D022F44075CA882A43D7
:101B000002808A8882850A88028598420AD0A0428B
:101B100008D0A54A904205D0A44A904202D0A44AD7
:101B2000904201D1097A01860121818230BD30B510
:101B3000028C22F001020284028C8388048B22F042
:101B4000020224F073050C882C430D8915434A8842
:101B50002A43884DA8420BD08C4DA84208D0924D04
:101B6000A84205D0914DA84202D0914DA8420DD176
:101B700022F008054A8923F440732A4322F0040521
:101B80008A882A438D891D43CB892B438380048314
:101B9000C9888186028430BD70B5028C22F01002A3
:101BA0000284028C8488038B0D8823F4E6464FF66A
:101BB000FF7303EA052535430E8922F0200203EA6C
:101BC000061616434A8803EA02123243694EB042AF
:101BD00002D06E4EB04215D122F080064A8924F41C
:101BE000406403EA0212324322F040068A8803EA84
:101BF000021232438E8903EA86062643CC8903EA21
:101C00008404344384800583C9880187028470BDBD
:101C100070B5028C22F480720284028C8488838BDB
:101C20000D8823F073031D4322F400730E894FF6D1
:101C3000FF7202EA06261E434B8802EA032333435F
:101C40004C4EB04202D0514EB04215D123F4006642
:101C50004B8924F4405402EA0323334323F480667F
:101C60008B8802EA032333438E8902EA0616264351
:101C7000CC8902EA0414344384808583C98881872F
:101C8000038470BD70B5028C22F480520284048CEF
:101C90008288838B0D8823F4E6464FF6FF7303EAB0
:101CA0000525354324F400560C8903EA04343443F3
:101CB0004E8803EA063626432E4CA04202D0334C0F
:101CC000A04205D122F480448A8903EA8212224389
:101CD00082808583C988A0F84010068470BD828BFD
:101CE00022F440628283828B4FF6FF7303EA012164
:101CF0000A4382837047828B22F00C028283828B9C
:101D00000A4382837047028B22F440620283028B73
:101D10004FF6FF7303EA01210A4302837047F0B5CF
:101D2000048C24F010040484078B048C4FF6FF7598
:101D300027F4734705EA03333B4305EA02221A43BB
:101D40000C4B05EA011698420ED0104B98420BD06E
:101D5000B0F1804F08D0084B984205D0074B98420D
:101D600002D0074B984225D124F02001314341F0A5
:101D7000100124E0002C0140000400400008004055
:101D8000000C0040001000400014004000340140EE
:101D9000004C014000500140005401400018004038
:101DA000001C004000200040004001400044014071
:101DB0000048014024F0A0030B4343F010010283CC
:101DC0000184F0BD028B22F00C020283028B0A43D5
:101DD0000283704770B5048C24F001040484058BE1
:101DE000048C4FF6FF7606EA0313134325F0F30540
:101DF000F94A2B4390420ED0F84A90420BD0B0F1F2
:101E0000804F08D0F64A904205D0F64A904202D060
:101E1000F54A904202D124F0020201E024F00A02C5
:101E20000A4342F001010383018470BD2DE9F05F94
:101E30000D4604460888E84FDFF8A0C3DFF8A0830A
:101E40004988AA882B894FF0804960B3042832D092
:101E50004FF6FF7E082836D0208C9B4620F4805019
:101E60002084A38B268C704600EA022223F473435D
:101E70001A4300EA0B3010430EEA013EBC420BD07D
:101E8000644509D04C4507D0444505D0D54A944215
:101E900002D0D54B9C4245D126F4005141EA0E01B7
:101EA00041F4805143E02046FFF794FFE988204643
:101EB000BDE8F05F86E72046FFF731FFE98820465E
:101EC000BDE8F05F1FE7208C20F480702084B4F818
:101ED0001CA0208C0EEA031313432AF0F30A0EEA27
:101EE000012B43EA0A03BC420BD0644509D04C45A0
:101EF00007D0444505D0BB4A944202D0BA4A944226
:101F000004D120F4007040EA0B0002E020F42060CD
:101F1000084340F48070A3832084E9882046BDE80C
:101F2000F05FE8E626F402420A4342F48051A083BF
:101F300020462184E988BDE8F05FD0E62DE9F04134
:101F40000C46002649880746012501B90226A288C9
:101F5000012A00D10225208823890028384610D084
:101F6000FFF7DDFEE1883846FFF7CDFE23892A46DC
:101F700031463846FFF72EFFE1883846BDE8F0418C
:101F800020E7FFF727FFE1883846FFF71BFF23898B
:101F90002A4631463846FFF7C2FEE1883846BDE89A
:101FA000F041B0E610B50A884B88CC881A438B887C
:101FB00023431A430B891A434B8989891A430A43DD
:101FC000A0F8442010BD4FF6FF71818000210180F0
:101FD000C180418001727047002101804180818071
:101FE000C180018141818181C181704700210180CF
:101FF000418001228280C1800181704700210180DF
:1020000041808180C18001814181818170470029A7
:10201000018802D041F0010101E021F001010180BD
:102020007047002930F8441F02D041F4004101E01C
:10203000C1F30E0101807047002A828901D00A4352
:1020400000E08A4382817047818270471143A0F883
:1020500048107047002A828901D00A4300E08A4371
:1020600082817047018921F007010181704702894F
:1020700022F070020A430281704700B50346FFF761
:10208000F6FF188940F00700188100BD70B51646AC
:102090000D46602904464FF0010231460AD0FFF791
:1020A00099FE29462046FFF7E2FF208940F007000D
:1020B000208170BDFFF733FEF3E730B504894FF69A
:1020C000FF7505EA03231343E4B20B432343038163
:1020D00030BD10B50446FFF7F0FF208940F07700CF
:1020E000208110BD10B50446FFF7E7FF208940F4BA
:1020F0008040208110BD018582827047028822F0D5
:1021000070020A430280704770B50589048B068C03
:1021100025F007050D434FF6FC410C4040F201113C
:102120000C434FF6FF7101EA031126F0220611431A
:10213000314305810483018470BD028B22F070025B
:102140000A4302837047028B4FF6FF7322F4E0428A
:1021500003EA0121114301837047828B22F0700250
:102160000A4382837047828B4FF6FF7322F4E0426A
:1021700003EA01211143818370470029018802D0BD
:1021800041F0800101E021F08001018070470029C9
:10219000818802D041F0040101E021F00401818036
:1021A00070470029818802D041F0080101E021F048
:1021B0000801818070470029818802D041F0010127
:1021C00001E021F0010181807047028B22F00802BA
:1021D0000A43028370470000002C01400034014094
:1021E0000004004000080040000C0040028B4FF645
:1021F000FF7322F4006203EA012111430183E9E73E
:10220000828B22F008020A438283E3E7828B4FF637
:10221000FF7322F4006203EA012111438183D9E7AD
:10222000028B22F004020A430283D3E7028B4FF6AB
:10223000FF7322F4806203EA012111430183C9E79D
:10224000828B22F004020A438283C3E7828B4FF61B
:10225000FF7322F4806203EA012111438183B9E70D
:10226000028B22F080020A430283B3E7028B4FF60F
:10227000FF73C2F30E0203EA012111430183A9E7B0
:10228000828B22F080020A438283A3E7828B4FF67F
:10229000FF73C2F30E0203EA01211143818399E720
:1022A000028C22F002020A43028493E7028C22F09D
:1022B00008020A4302848DE7028C4FF6FF7322F076
:1022C000200203EA01111143018483E7028C4FF6D7
:1022D000FF7322F0800203EA01111143018479E7C0
:1022E000028C4FF6FF7322F4007203EA01211143BE
:1022F00001846FE7028C4FF6FF7322F4006203EA59
:1023000001211143018465E7028C4FF6FF7322F42B
:10231000005203EA0131114301845BE710B5012348
:10232000048C8B409C430484038C8A4013430384B5
:1023300010BD10B50423048C8B409C430484038C93
:102340008A401343038410BD30B50124058C00F18D
:1023500018038C40A543058489B108290FD0091FB3
:10236000C1F34E001844016821F4E04101600168A6
:102370004FF6FF7303EA02221143016030BD03EB05
:102380005100016821F0700101600168F4E7002943
:10239000018802D041F0020101E021F00201018038
:1023A00018E70029018802D041F0040101E021F082
:1023B000040101800EE70029818802D041F08001EC
:1023C00001E021F08001818004E7028822F0080208
:1023D000028002880A430280FCE6828822F07002B2
:1023E000828082880A438280F4E6028922F0070212
:1023F000028102890A430281ECE6028922F080020E
:10240000028102890A430281E4E68184E2E6818551
:10241000E0E68186DEE60187DCE68187DAE6A0F881
:102420004010D7E6028822F44072028002880A43F4
:102430000280CFE6808ECDE6008FCBE6808FC9E6A6
:10244000B0F84000C6E6808CC4E6008DC2E60246C5
:102450000020128A0A4200D00120BBE6C943018253
:10246000B8E602460020138A92890B4202EA010272
:1024700002D0002A00D00120ACE6C9430182A9E6BF
:1024800001210171002141710222827141F2D722A2
:102490000260084670470122027102220021427147
:1024A000072282714FF4B46202600846704738B563
:1024B00014460D466A46C22103F0ECFD0121297045
:1024C0009DF800100909217038BD02F0CBBF38B566
:1024D0000C466A46142103F0DDFD9DF80010C1F39F
:1024E000C301217038BD02F0F3BF03F024B803F03C
:1024F0003EB803F094B890F83201002208701046FC
:10250000704702F0D2BB02F0E8BB2DE9F843074662
:10251000002090460E468DF800006A46012138469C
:1025200003F0B8FD05009DF8000004462ED1291FD8
:10253000B8F1010F06D0052E2CD2DFE806F0191CE9
:102540001F222500052E25D2DFE806F00306090C20
:102550000F0044F0100419E044F0280416E044F0A1
:10256000040413E044F0400410E044F080040DE063
:1025700004F0EF040AE004F0D70407E004F0FB04E1
:1025800004E004F0BF0401E004F07F04844210D0B2
:1025900015B10EE00D460CE022460121384603F04D
:1025A00037FD050005D187F8304138467969FFF7D6
:1025B000AAFF2846BDE8F88310B50C460A46092153
:1025C00003F068FD002803D1217801F0010121709A
:1025D00010BD02F0E1BB38B50C4605466A46012144
:1025E00003F058FD00280BD19DF8001085F830113C
:1025F000090601D5012100E00021217085F84C1069
:1026000038BD03460020062902D3001F002102E046
:10261000194491F8281011707047F8B5044600204D
:10262000154606292FD2DFE801F003051A1C1E1EED
:10263000646B26E06A464421204603F036FD0028FC
:1026400004D100BFBDF800104FEA412606D1EEB11B
:102650002E604FF00101A66384F82910F8BDE46BE9
:102660000FE0246C0DE06A464FF06401204603F051
:102670001CFD002804D100BFBDF800104FEA412422
:10268000ECD12C60F8BD6FF00300F8BDA16B2960A0
:102690004FF00001E0E701F0A4B938B50D4604465B
:1026A0006A46202103F001FD002807D1BDF8001083
:1026B00029B1C900296021620121217738BD216A31
:1026C00029600021F9E73EB50C46054602AAF8212B
:1026D00003F0EBFC00280ED16A460421284603F0E3
:1026E000EFFC002807D1BDF8081029B1009AB2FB11
:1026F000F1F12160A9613EBD2168FBE7007C002269
:1027000008701046704770B506460C46007C01F80C
:10271000080B3046FFF7D7FF002832D1207304F1B1
:1027200010013046FFF7B9FF00282AD104F1140147
:102730003046FFF7B0FF002823D1002501E0002834
:102740001FD104EB8502A9B230462432FFF765FFA2
:10275000002816D16219A9B230461832FFF751FF8E
:102760006D1C062DEBDB00280BD104F13C0130463B
:10277000FFF731FF002804D1211D3046BDE870402D
:1027800027E770BDF8B50646002401220B2130462C
:1027900003F03EFC074600220B21304603F038FCD4
:1027A00040EA07056A461321304603F073FC641CB7
:1027B0009DF800102843E4B2490704D0032C04D24A
:1027C0000028E2D0F8BD032CFCD36FF00B00F8BD5D
:1027D00070B51C46049E054611B16FF0090070BD2E
:1027E000142A08D0152A0FD0052C6FD2DFE804F088
:1027F00066686A6C6F002EB10122BDE870408421CA
:1028000003F006BC1022F8E70122FF2103F000FCD0
:10281000044600221146284603F0FAFB0443002236
:10282000FF21284603F0F4FB0443012280212846BF
:1028300003F0EEFB044302228521284603F0E8FB67
:1028400004430422FF21284603F0E2FB0443002254
:10285000CD21284603F0DCFB04431122CC2128467D
:1028600003F0D6FB04430722FF21284603F0D0FBE8
:1028700004430022BE21284603F0CAFB044306227B
:10288000FF21284603F0C4FB04430922CC2128463B
:1028900003F0BEFB04430022FF21284603F0B8FBEF
:1028A00004430122FF21284603F0B2FB0443002227
:1028B0001146284603F0ACFB204370BD002207E020
:1028C000012205E0022203E0032201E016E00422D7
:1028D0000A21284603F09CFB0028EED18EB110237C
:1028E000EF228421284603F0B4FB0028E5D185F8C7
:1028F000DA402846BDE87040002143E76FF00A0047
:1029000070BD0023ECE730B597B00446402101A824
:1029100003F0B1FD00258DF84450ADF850508DF80E
:10292000545001212046169501F0E3FC94F814213F
:1029300094F81311012A06D802D1202903D808E0FF
:102940003AB90C2905D915AA16A9204601F0A0FA12
:1029500002E0204601F0AAFBFE4900287DD194F850
:10296000500108B9D4F84C11204602F077FA00283B
:102970007ED100220423114620460095FFF728FF50
:10298000002875D10122FF21204603F041FB0546B6
:1029900014AA8421204603F088FB05430022FF216E
:1029A000204603F035FB284362D1BDF8500001A951
:1029B0000001C4F8D4002046FFF7A5FE002857D137
:1029C00011A92046FFF7F8FD002851D19DF84400D9
:1029D00084F83101402201A904F1100003F032FD16
:1029E00011AA0121204603F055FB002840D19DF893
:1029F000440084F83001002211462046FFF785FD8F
:102A0000002835D1002202212046FFF77EFD002854
:102A10002ED1032084F8320112AA00212046FFF7AC
:102A200070FD002824D19DF8480084F8E80012AA1F
:102A300001212046FFF765FD002819D19DF84800C7
:102A400084F8E00013AA0321204601F025FF0028A6
:102A50000ED1139813AA042100E009E0C4F8E400A1
:102A6000204601F019FF002802D11399C4F8DC10A8
:102A700017B030BD70B50446022591B1022902D0CD
:102A80006FF0070070BD0022802103F0C1FA00281A
:102A9000F8D12046FFF737FF0028F3D184F83351EF
:102AA00070BD0022802103F0B3FA0028F8D184F829
:102AB0003251002184F8331170BD38B504466A469E
:102AC000802103F0E7FA002806D19DF800100129C3
:102AD00003D0002184F8331138BD0221FAE700F059
:102AE00066BF034600204FF47A72914201D9001F5D
:102AF0007047A3F852119142FAD0002220211846C3
:102B000003F091BAB0F852010022088010467047D5
:102B10006FF0620070476FF06200704730B50C468E
:102B200087B0054600F150011C22684603F08AFC7C
:102B300022466946284602F0FAF907B030BD4A0835
:102B40008A2103F065BA70B514460022431800EBE1
:102B5000810593F82830DBB1C4F34F23062914D242
:102B6000DFE801F00305080A0C0C446310E01A4684
:102B7000442105E0C4630BE0046409E01A466421C3
:102B800003F051FA020003D003E06FF0030200E00B
:102B90006C63104670BD2DE9F041044600200D46DF
:102BA0001646071F034601460246062D02D3384645
:102BB000BDE8F08156B104EB85014B6B0121062D78
:102BC000F5D2DFE805F005080F1215180122F6E727
:102BD00084F8281017E0C3F34F224421204603F065
:102BE00022FA0EE084F82A100DE084F82B100AE097
:102BF0005300FE2201E01301EF226021204603F082
:102C000028FA0028D4D161191EB1012281F82820A8
:102C1000CEE70022FAE7F0B591B004460123FE2288
:102C2000892103F016FA20B900228821204603F0FA
:102C3000EFF9002584F8F0504FF47A70A4F85201AF
:102C40004FF4C870A4F854014348C4F858014348ED
:102C50002562C4F8D40069462046FFF754FD0600FB
:102C600009D18DF800508DF801504022694604F1D9
:102C7000100003F0E7FB6420A4F834014FF4617006
:102C8000A4F836014FF4FA70A4F838014FF420602C
:102C9000A4F83C01012784F850713A46802120466F
:102CA00003F0B6F906430122FF21204603F0B0F9F4
:102CB000064300221146204603F0AAF9064310AA53
:102CC0009121204603F0E6F906439DF8400084F880
:102CD0003A0101220021204603F09AF9064300221E
:102CE000FF21204603F094F906430022802120466C
:102CF00003F08EF93043002600285AD1B1B20122E8
:102D00002046FFF748FF761C062EF5DB002850D141
:102D1000002202212046FFF73EFF002849D1002271
:102D200003212046FFF737FF002842D1002204216B
:102D30002046FFF730FF00283BD100220521204626
:102D4000FFF729FF002834D14FF4901200212046CC
:102D500006E00000D4030020856B0100A470090088
:102D6000FFF7F1FE002824D14FF4804201212046D4
:102D7000FFF7E9FE00281CD14FF40C120221204677
:102D8000FFF7E1FE002814D1002203212046FFF7BF
:102D9000DAFE00280DD1FF2084F83001024601211F
:102DA000204603F035F984F83271002801D184F807
:102DB000155111B0F0BD0023012A08D00A7842B1A4
:102DC000C0F84C115FF0000180F8501103E00121C0
:102DD000FAE76FF003031846704710B5D0F84C417E
:102DE0000C6090F8500100231070184610BD6FF071
:102DF0006200704738B505460022BF2103F008F98C
:102E000040B96A46C021284603F044F99DF8000005
:102E10000028F6D1284603F05EF90122BF2128469A
:102E200003F0F6F8040009D16A46C021284603F0F1
:102E300031F904469DF800000028F5D0284603F03B
:102E40004AF914B9002085F83201204638BD38B55A
:102E50000C4605466A46012103F01CF99DF8000066
:102E600094B140F080008DF800000124C2B201212D
:102E7000284603F0CDF8002805D19DF8001085F80C
:102E8000301185F84C4038BD00F07F008DF800000F
:102E90000024EBE770B504460D46217FB4F85221BB
:102EA000002049B1B2F57A7F08D0002220212046C7
:102EB00003F0B9F8002800D1256270BDC5F3CF0238
:102EC000F4E738B50C4605466A46F82103F0EDF8FC
:102ED00000280DD1BDF8000010B104FB00F200E0A5
:102EE00022460421284603F0A9F8002800D1AC614D
:102EF00038BD0246002003290BD003DC49B101296B
:102F000004D106E0142904D0152902D06FF007007F
:102F100070471174704770B50C4606460978FFF784
:102F2000E8FF68B93046A168FFF7CBFF40B93046EB
:102F30002169FFF7AFFF18B930466169FFF7CFFD90
:102F40000025002820D16019A9B2027E3046FFF783
:102F500022FE002818D104EB8500A9B2426A30464F
:102F6000FFF7F1FD6D1C062DEBDB00280CD194F86A
:102F70003C103046FFF76BFF002805D130466168F2
:102F8000BDE87040FFF7BFBA70BD70B50C460A4689
:102F90000546092103F03CF8002801D185F83141AC
:102FA00070BD6FF0620070476FF06200704701F013
:102FB0006DBD10B500201870052913D2DFE801F0AF
:102FC0000306090C0F00C2F3001109E0C2F3C001AF
:102FD00006E0C2F3800103E0C2F3801100E0D109F2
:102FE000197010BD6FF0030010BDF8B50646002043
:102FF00014460D468DF800006A460121304603F064
:1030000049F8002806D123469DF80020294630467D
:10301000FFF7CFFFF8BD38B5054600200C468DF808
:1030200000006A460121284603F034F800282AD11E
:1030300023469DF8002000212846FFF7BAFF00280C
:1030400021D1A31C9DF8002001212846FFF7B1FFE4
:10305000002818D1631C9DF8002002212846FFF7A4
:10306000A8FF00280FD1E31C9DF80020032128466B
:10307000FFF79FFF002806D1231D9DF800200421A3
:103080002846FFF796FF38BD002005220A707047DA
:1030900002F0D2BCF8B5054602EB42000E46C0EB8A
:1030A000C2104FF4004101EBC000040C6A463146E7
:1030B000284601F0F1FB002818D122463146284667
:1030C00001F063FC002811D16C6928462146FFF706
:1030D0001AFA00280AD031462846009A01F055FC19
:1030E000002803D121462846FFF70DFAF8BD38B570
:1030F00014466A4601F0D0FB00280AD100994FF42B
:103100007A720902009101F5FA71B1FBF2F109023C
:10311000216038BD70B50446B0F852010D0002D0F0
:10312000B0F57A7F01D0002000E0206A2021C0F3B2
:10313000CF02204602F077FF002802D115B101210D
:10314000217770BD0021FBE702460020127F0A7044
:10315000704701F036B801F044B800210622028021
:103160000846704702F083BC03460020062901D3BD
:10317000001F7047194491F82E101170704770B5F8
:10318000144600252A1F88B0062916D20B4600F1E6
:103190005001062B11D2DFE803F003060C060606E9
:1031A000D0F8400107E01C22684603F04BF9039871
:1031B00001E0D0F84801206000E0154608B028463C
:1031C00070BD70B50446002531B12AB1A4F8541180
:1031D000C0F85821284670BD042101F08AF84FF448
:1031E000C871D4F82001A4F85411C4F85801F1E7CB
:1031F00010B5B0F854410C80D0F85801002310608D
:10320000184610BDF8B515461C4606466A460E21FE
:1032100002F04BFFBDF800100905C908296000281D
:1032200009D16A460C21304602F03FFFBDF800107C
:103230000905C9082160F8BD7CB50446002094F852
:10324000DA200D46012A03D0022A01D0032A14D124
:1032500001AB6A4601212046FFF7D4FF009A4FF4E4
:103260007F018A4202D8019A8A4206D9002804D1F5
:1032700025B1FA49204601F0F1FD7CBD0422FF2171
:10328000204602F0C5FE054600227021204602F0CD
:10329000BFFE05430022FF21204602F0B9FE054390
:1032A00000228021204602F0B3FE28437CBDF8B501
:1032B00001250646047C2A46802102F0A9FE01224F
:1032C000FF21304602F0A4FE00221146304602F0F3
:1032D0009FFE96F83A219121304602F099FE012294
:1032E0000021304602F094FE0022FF21304602F019
:1032F0008FFE00228021304602F08AFE3CB1042578
:10330000012C27D0032C30D06FF00700F8BD01222C
:103310000021304602F07CFE8DF800500028F5D1E7
:1033200000244FF4FA6705E024B16A4600213046D4
:1033300002F0B0FE9DF80020641C25EA0201014362
:1033400005D0BC42E2D300BF6FF00600F8BDBC421E
:10335000EAD3F9E718B901213046FFF76DFF0222E1
:1033600009E000BF86F83251F8BD18B90121304696
:10337000FFF762FF04220021304602F049FE0028D8
:10338000F0D0F8BD70B5047C054614B9FFF78FFF87
:1033900010B9284600F042FF50EA040102D103218F
:1033A00085F8321170BD6FF062007047012300F0A4
:1033B0004FBD6FF06200704700F026BA00F094BA7B
:1033C00010B500220446114602F022FE0122FF2120
:1033D000204602F01DFE00221146204602F018FE93
:1033E00000229121204602F013FE012200212046F6
:1033F00002F00EFE0022FF21204602F009FE002806
:1034000007D1032084F832012046BDE81040002196
:1034100012E710BD38B50C466A46132102F03AFE99
:103420009DF8001001F0070211F0180F226001D082
:103430006FF0050038BD7CB50C4690F8DA10002519
:10344000012604290AD06A46142102F023FE00282E
:103450000BD19DF80010C90706D007E001A9FFF7BE
:10346000D9FF0199042901D025707CBD26707CBD4F
:103470006FF062007047F0B58DB00C4605460C2326
:1034800002AA142102F0B5FD06007CD10021A1752D
:1034900021609DF813009DF81220616000EB02206E
:1034A0009DF80F209DF80E304FF47A7E02EB032238
:1034B0001204D209E2609DF811309DF8106080B2CC
:1034C00003EB06231B04DB0923619DF80B309DF8F9
:1034D0000A6003EB06239BB2A382B5F852619DF804
:1034E000087095F831C176451FD0464306F5FA7647
:1034F00096FBFEF02E8C95F81CE080B2B6B2BEF1C1
:10350000000F12D05E43B2EB262F08D1BCF1000FA2
:1035100002D042F2B82008E048F6E0200DE0504327
:10352000A2EB2626B0FBF6F080B2BCF1000F04D06F
:10353000810821818001E07501E02081E1750CA8FE
:10354000CDE900403946284601F074FE060025D139
:103550009DF83000207605F150011C220D4605A88B
:1035600002F070FF2089ADF81C00E07D8DF82B0083
:103570006089ADF81E0060680690E06808902069D8
:103580000990A08A00E009E0ADF82800207E8DF8BF
:103590002C001C2205A9284602F054FF0DB030462D
:1035A000F0BD38B5054600200C468DF800006A468F
:1035B00002212846FFF725F89DF8001019B1D5F82B
:1035C0004811216038BD6FF01D0038BD6FF06200FA
:1035D000704770B50C4605460021FFF78AFC0028AD
:1035E00010D12846FFF7CEFE00280BD121462846F1
:1035F000FFF741FF002805D12846BDE870400021B3
:10360000FFF7C0B870BD0020012900D0001F70472F
:10361000002001220A707047002001220A707047C2
:10362000F8B50546007C069E1F46107011B16FF07C
:103630000900F8BD6A460A21284602F02BFD002841
:10364000F7D19DF8000000F0070005281CD2DFE844
:1036500000F00307090B0D00002408E0C704002058
:10366000012404E0022402E0032400E004246A466A
:103670008421284602F00EFD0028DAD19DF80010C2
:10368000C90604D4002103E06FF00A00F8BD01214F
:1036900031703C7085F8DA40F8BD70B51C460546BF
:1036A000C2F34B420E2102F0BEFC002807D1C4F346
:1036B0004B422846BDE870400C2102F0B4BC70BDFE
:1036C00038B5054600200C468DF800000122FF2188
:1036D000284602F09DFC50B96A460421284602F0B3
:1036E000D9FC20B90022FF21284602F091FC9DF868
:1036F00000102160002923D101228021284602F0F8
:1037000087FC0122FF21284602F082FC002211469C
:10371000284602F07DFC95F83A219121284602F0D6
:1037200077FC01220021284602F072FC0022FF21D2
:10373000284602F06DFC00228021284602F068FC39
:1037400038BD6FF06200704770B50C460546012227
:10375000FF2102F05DFC064622464021284602F089
:1037600062FC40EA06040022FF21284602F050FCD9
:10377000204370BD70B50C4605460122FF2102F0C2
:1037800047FC064622464021284602F08EFC40EACD
:1037900006040022FF21284602F03AFC204370BDB7
:1037A00070B5CCB205460122FF2102F031FC06467D
:1037B00022464221284602F02BFC40EA0604002261
:1037C000FF21284602F024FC204370BDF8B50C46CA
:1037D00005460122FF2102F01BFC06466A464221F3
:1037E000284602F057FC06430022FF21284602F03B
:1037F0000FFC9DF8001030432180F8BD00F056BC4E
:1038000000F0A7BC00F044BB2DE9F04F4FF00008DA
:1038100087B092460E008346C14647464446454619
:1038200012D000215846FFF775FC00280ED1002267
:1038300003215846FFF7AFF9002807D169465846DB
:10384000FFF7C7FED8B904E06FF0030007B0BDE88A
:10385000F08F9DF8181071B9BDF80820641C02EBB8
:1038600008011FFA81F80399BDF814200F4409EBF1
:1038700012211FFA81F96D1CEDB2322DDED3CCB1CD
:103880000028E3D14FEA0941B1FBF4F14FEA0840C7
:10389000B7FBF4F3B0FBF4F001F5004106F500428C
:1038A000090C4FEA124203D0141E01D0B04204D3D7
:1038B00000240CE06FF00500C8E7B0FBF4F0B3FBA8
:1038C000F1F1C0F58030484300F50040040C0121BF
:1038D0005846CAF80040FFF71DFC0028B6D1214623
:1038E0005846FFF7D7FAB1E72DE9F0434FF000064D
:1038F00089B090460F008146344635461FD00021DE
:10390000FFF7EDF800281CD16A4600214846FFF772
:103910006CFB002815D1002211464846FEF7F5FD44
:1039200000280ED1002203214846FFF734F9002871
:1039300007D101A94846FFF74CFE80B904E06FF0BB
:10394000030009B0BDE8F0839DF81C1021B9BDF853
:103950000C10641C31448EB26D1C322DE9DB1CB39B
:103960000028EED13004B0FBF4F007F5004700F575
:103970000040390CA1EB10404FF47A714843C8F86D
:103980000000C9F824004846D8F80010FFF7A7F84F
:103990000028D6D19DF800100029D2D001220021A4
:1039A0004846FEF7B2FDCCE76FF00500C9E730B43A
:1039B000FD4AFE4BFA24914201DD114605E0994291
:1039C00001DA194604E0002902DB91FBF4F103E07F
:1039D00091FBF4F101F580518AB230BC282102F04C
:1039E00022BB38B50C4640F2FF756A46282102F02A
:1039F0005CFB00280DD1BDF80010C1F30B02ADF83F
:103A00000020AA424FF0FA0101DDA2F580524A439C
:103A1000226038BD38B50446072100F06AFC002852
:103A200010D169462046FEF736FE00280AD10098DC
:103A3000A060E1680D1829462046FFF750F80028DD
:103A400000D1656238BD2DE9F043082581464FF06D
:103A5000FF301860B2FBF5F0B2FBF5F605FB10275E
:103A60004FF0000C304615E0002219F80040B0423B
:103A700002D1FC403A460AE05FEAC47805D000FB78
:103A800005224FF0010C1A6003E06408521CAA42A0
:103A9000F2D3401C884202D2BCF1000FE4D051E7BF
:103AA0000146C34A8909012052F82110002900D19A
:103AB0000020704770B50825B2FBF5F3B2FBF5F6B0
:103AC0000446002005FB16228B4202D36FF0310022
:103AD00070BDE15C012595402943E15470BD2DE99D
:103AE000F04F0826B2FBF6FCB2FBF6F4824600204B
:103AF00006FB1C29054607468C4201D36FF03100B6
:103B000000214FF0010E8B46A4F1010C19601FE05B
:103B10001AF805205FF000015FEAC27813D0D3F8ED
:103B2000008008F10108C3F8008067B9DDF824803F
:103B3000022D88F800E005D2042903D2DDF82480A4
:103B400088F800B001275208491CB142E4D96D1C25
:103B50006545DDD91AF80420002105E0D40702D01C
:103B60001C68641C1C60491C4945F7D96FE6062394
:103B70000A46B02102F02EBA06230A46B02102F00E
:103B800038BA2DE9FF4F83B00024DDE9125A149FA3
:103B90009B46DDF8409026466FF0310800951AE00C
:103BA0006B462A4649460598FFF74DFF0098411C91
:103BB00006D011990844FFF773FF0499884202D098
:103BC00044463D6024E0009D49462A465846FFF79A
:103BD00071FF6D1C761C5645E2D33D60C4B9594651
:103BE0000398FFF7C4FF040012D101A90398FFF75F
:103BF000C3FF0446002001A908E000BF1BF8002015
:103C00000B5C9A4201D0444602E0401C4845F5D383
:103C100020461BE670B50E4688B0054690F8304148
:103C2000C022012102F0F4F9002823D16946284678
:103C3000FFF7CFFC00281DD10122FF21284602F00A
:103C4000E7F9002816D13246B621284602F02DFAAF
:103C500000280FD10022FF21284602F0D9F90028C0
:103C600008D122460121284602F0D2F9002801D1CC
:103C700085F8304108B070BD2DE9FF4F81B00020BC
:103C8000DDE90EA9DDE910650F468DF800009B46C1
:103C90000122FF21019802F0BBF9044600221146DF
:103CA000019802F0B5F940EA04080022FF210198CA
:103CB00002F0AEF940EA08046FB12EB15246CB21B2
:103CC000019802F0E7F90443A5B16A46EE21019894
:103CD00002F0E0F90DE02EB1CB21039A019802F039
:103CE00097F9044335B15B468022EE21019802F03A
:103CF000B0F904430122FF21019802F089F904433D
:103D000001220021019802F083F904430022FF21DF
:103D1000019802F07DF99DF80010204301F0EF02B8
:103D200089F8002005B092E510B541F00102044683
:103D3000002102F06DF9002811D1204600F06EFA42
:103D400000280CD100212046FEF71CFD002806D1DA
:103D500020460022BDE81040114602F059B910BDBE
:103D60002DE9F04385B01D0091460E4607464FF001
:103D7000000401D097F830410222012102F048F9F5
:103D80004FF0000838B900213846FFF7CDFF10B9D1
:103D9000B9F1010F17D086F80080002811D1002D4D
:103DA0000FD02246012105E018CC07000030F8FFB3
:103DB00080060020384602F02BF9002801D187F850
:103DC000304105B0BEE5012004A9CDE90016CDE9DA
:103DD00002804246014613463846FFF74DFFDCE7B6
:103DE0002DE9F04385B04FF000051E0091460F46C7
:103DF00080462C468DF8105001D098F830510122A1
:103E0000114602F005F938B940214046FFF78CFF12
:103E100010B9B9F1010F0ED03C700028D1D1002E9D
:103E2000CFD02A460121404602F0F2F80028C8D13E
:103E300088F83051C5E7012004A900970394CDE923
:103E400001102246014613464046FFF715FFE4E7FE
:103E50002DE9F0411E461746054690F830410023F3
:103E60003246FFF7BDFF002810D100233246394605
:103E70002846FFF775FF002808D122460121284671
:103E800002F0C6F8002801D185F83041BDE8F08184
:103E90002DE9F74F96B006462C200B9000200E908F
:103EA00011908DF84C008DF850001290B6F83CA19E
:103EB0004FF0B4094FF0030B01464FF006080746D8
:103EC00072180020491C82F824014145F8D30122D0
:103ED000FF21304602F09CF8040079D100224F21E6
:103EE000304602F095F80400F7D12C224E213046DE
:103EF00002F08EF80400F0D10022FF21304602F0DB
:103F000087F80400E9D14A46B621304602F080F82D
:103F10000400E2D100228021304602F079F804004A
:103F2000DBD1002314AA13A93046FFF791FF040048
:103F3000D3D106F592730EAACDF8008006930E90A9
:103F4000CDE903B29A1D0A92CDE9019001463046AF
:103F5000FFF717FE04003BD109A930460E9DFFF77D
:103F600059FE040034D1BDF82410514531D9002147
:103F70003218401C82F824114045F9D300E06D1C32
:103F800009EB0500FFF78CFD10B90B988542F6D3BD
:103F900001200EA9CDF800801590CDE903B1CDE93F
:103FA000019501463046069B0A9AFFF7EAFD040098
:103FB00079D109A930460E9DFFF72CFE040072D17D
:103FC000BDF82410514505D901205F46129001E04B
:103FD00051E0159089B2514555D2159812905F461F
:103FE00042460FA8069902F02DFABDF82410B1EB55
:103FF0000A0000D54042834611AB2A4641460A9842
:10400000FFF721FD1198411C0FD04844FFF748FDF0
:10401000159988422ED1119D41462A467F1C06984B
:10402000FFF748FD040003D03DE06FF031043AE0B3
:1040300030466D1C0699FFF79AFD040033D109A99B
:104040003046FFF7E7FD04002DD1BDF82410B1EB99
:104050000A0000D5404251450ED958450AD90FA94A
:104060003046FFF784FD044642460FA9069802F049
:10407000E9F97F1E3CB116E0834642460FA8069937
:1040800002F0E0F9B8E717980760189912980870DD
:10409000012086F815011798007886F81301189802
:1040A000007886F81401204619B05FE52DE9F04745
:1040B0009046894686B004460025B42606274FF070
:1040C0002C0A0122FF2101F0A3FFB0B900224F21E9
:1040D000204601F09DFF80B92C224E21204601F0A0
:1040E00097FF50B90022FF21204601F091FF20B92F
:1040F0003246B621204601F08BFF002001462218EF
:10410000401C82F82411B842F9D3B8F1000F01D154
:1041100006E06D1C7019FFF7C3FC08B95545F8D3CC
:1041200005A90097CDE90391CDE9016504F59273E6
:104130009A1D41462046FFF724FD002806D10121A3
:1041400084F8151184F8139184F8148106B0BDE841
:10415000F0872DE9F04186B0044600200E468DF828
:10416000040094F81511062715464FF02C08012974
:1041700020D002A92046FFF7FFFC002818D101A893
:10418000009004AB4246394602A8FFF7A8FC00287D
:104190000ED1049931609DF804102970012184F832
:1041A0001511049984F813119DF8041084F8141162
:1041B00006B06BE694F81311316094F81411117085
:1041C000F6E730B587B004AD012305AC0095CDE925
:1041D0000143039313460A460021FFF74DFD07B044
:1041E00030BD7FB501258DE82600002423462246F8
:1041F00029460395FFF740FD04B070BDF0B50025DA
:104200004C082A4606E08B1A5B1E865CC75C875406
:10421000C654521CA242F6D32846F0BDF8B5064655
:1042200000208DF8000004464FF4FA6569463046D8
:10423000FFF701F9002807D19DF80010012903D0EC
:10424000641CAC4201D3C01FF8BD304601F043FFEF
:10425000ECE74000801CC0B27047FF2101EB50002A
:10426000C0B27047024600204FF0804100E089084C
:104270009142FCD808E04318934203D8D21A01EBCC
:10428000500000E0400889080029F4D170474FF43D
:104290008032904201D2914202D34FF6FF707047B4
:1042A000404301FB0100DDE7F8B50646002283210B
:1042B00001F0AEFE040011D100254FF4FA676A4602
:1042C0008321304601F0E6FE04469DF800002043BD
:1042D0000BD0BD4202D300BF6FF006040122832140
:1042E000304601F095FE2043F8BD6D1CBD42E6D37B
:1042F000F2E72DE9F04F95B0002504460E954FF4F6
:10430000C8500F95CDE90450129594F8F0600F460F
:10431000AB46AA46072E7DD001228021204601F01F
:1043200077FE80460122FF21204601F071FE40EA1F
:10433000080500221146204601F06AFE40EA050801
:104340000622FF21204601F063FE40EA080502AA8A
:104350008321204601F09EFE40EA05089DF80800F2
:10436000832140F00402204601F052FE40EA080595
:104370000722FF21204601F04BFE40EA05080122FA
:104380008121204601F044FE40EA0805204601F064
:10439000A2FE40EA050801228021204601F038FEF5
:1043A00040EA0805F80755D0F00753D16B22942155
:1043B000204601F02DFE40EA05082046FFF774FF75
:1043C00040EA080501AA9021204601F079FE40EA62
:1043D000050801982422C0F30621C0F3C03B1291C6
:1043E0009421204601F014FE40EA08052046FFF71C
:1043F0005BFF40EA050801AA9021204601F060FE1B
:1044000040EA08050198010E8DF82C10010C8DF87A
:104410002D1000E0FDE1010A8DF82E108DF82F001F
:1044200025229421204601F0F3FD40EA05082046AC
:10443000FFF73AFF40EA080901AA9021204601F05F
:104440003FFE40EA09050198010E8DF83010000C7E
:104450008DF83100B8077DD5B0077BD402229421B6
:10446000204601F0D5FD40EA05082046FFF71CFF75
:1044700040EA080513AA9021204601F00BFE40EA0D
:1044800005087B229421204601F0C2FD40EA080580
:104490002046FFF709FF40EA050810AA90212046B0
:1044A00001F0F8FD40EA080577229421204601F04A
:1044B000AFFD40EA05082046FFF7F6FE40EA080592
:1044C00001AA9021204601F0FBFD40EA0508019871
:1044D0007822410E8DF81810C0F386418DF819101E
:1044E000C0F3C6218DF81A10C0F306110007400E64
:1044F0008DF81B108DF808009421204601F088FDEE
:1045000040EA08052046FFF7CFFE40EA050801AA69
:104510009021204601F0D4FD40EA08059DF80810DE
:10452000019801EB50718DF81C10C0F386518DF885
:104530001D10C0F3C6318DF81E10C0F306218DF892
:104540001F10C0F34601C007400E8DF820108DF8F3
:10455000080000E056E079229421204601F058FD41
:1045600040EA05082046FFF79FFE40EA080501AA39
:104570009021204601F0A4FD40EA05089DF80810AE
:1045800001987A2201EB90618DF82110C0F3C641A9
:104590008DF82210C0F306318DF82310C0F34611B8
:1045A000C006400E8DF824108DF808009421204696
:1045B00001F02EFD40EA08052046FFF775FE40EAAF
:1045C000050801AA9021204601F07AFD40EA08057D
:1045D0009DF80810019801EB90718DF82510C0F33B
:1045E000C6518DF82610C0F306418DF82710C0F390
:1045F00046218DF82810C0F386008DF82900002090
:104600008DF82A0078077CD570077AD47B22942114
:10461000204601F0FDFC40EA05082046FFF744FE75
:1046200040EA08050EAA9021204601F049FD40EA23
:1046300005087C229421204601F0EAFC40EA0809A2
:104640002046FFF731FE40EA09050FAA90212046D7
:1046500001F036FD40EA050873229421204601F05E
:10466000D7FC40EA08052046FFF71EFE40EA050891
:1046700001AA9021204601F023FD40EA0805019897
:10468000742200064FEA10499421204601F0C0FC34
:1046900040EA05082046FFF707FE40EA080501AAA0
:1046A0009021204601F00CFD019940EA050849EAF5
:1046B0001160049075229421204601F0A9FC40EA83
:1046C00008052046FFF7F0FD40EA050901AA902100
:1046D000204601F0F5FC40EA090801987622000620
:1046E0004FEA10499421204601F092FC40EA080567
:1046F0002046FFF7D9FD40EA050801AA902120468F
:1047000000E006E001F0DCFC019940EA080549EA16
:10471000116A00228121204601F07AFC40EA050856
:104720000622FF21204601F073FC40EA080502AA98
:104730008321204601F0AEFC40EA05089DF8080000
:10474000832100F0FB02204601F062FC40EA0805EC
:104750000122FF21204601F05BFC40EA050801220E
:104760000021204601F054FC40EA08050022FF2108
:10477000204601F04DFC40EA050800228021204639
:1047800001F046FC50EA080543D1F8070FD0F007C6
:104790000DD1129884F8130184F814B100200BA9EC
:1047A00023180A5C401C83F82A210628F8DBB80786
:1047B0000ED5B0070CD49DF84C0084F8F1009DF89C
:1047C000400084F8F20004F1F30006A901F05EFE57
:1047D000780719D5700717D40E98C4F818010F98E8
:1047E000C4F81C0104984002C4F820010020BAF16A
:1047F000000F08D00599AAEB01004FF47A11484345
:104800000014404200B2E0603E438DF8086084F836
:10481000F06015B02846BDE8F08F01EBC10140F211
:1048200077600902A1FB000170470022114648B1E0
:10483000401E02E04008491C89B2020AFAD161F325
:104840001F2082B2104670470146C0B2090A884054
:10485000401C704700B50B461146FFF7DEFF4FF4D2
:104860007A7100F5FA70B0FBF1F04B4303EB5001A5
:10487000B1FBF0F000BD00B50B461146FFF7CDFFD0
:104880004FF47A7100F5FA70B0FBF1F0434303F591
:10489000FA73B3FBF1F000BD2DE9F04100248AB0BA
:1048A000174680468DF81C402546ADF81840264630
:1048B00041B1012906D0022904D0032912D00429CC
:1048C00029D05DE06A4600214046FDF71AFE04004B
:1048D00005D107AA4621404601F0DCFB04469DF8BD
:1048E0001C0015E06A4600214046FDF70AFE040060
:1048F00046D16A4600214046FDF703FE040005D17B
:1049000006AA5121404601F0D0FB0446BDF818002C
:10491000FFF79AFF2DE004A94046FEF77CFB9DF8C7
:104920001300002590B16A4600214046FDF7E9FDDD
:1049300004001DD106AA5121404601F0B6FB0446F1
:10494000BDF81800FFF780FF85B28CB96A460121D7
:104950004046FDF7D6FD04000AD108AA7121404661
:1049600001F0A3FB0446BDF82000FFF76DFF86B2FF
:10497000701B81B29DF800204046FFF77CFF054682
:104980003D600AB02046BDE8F081F0B587B016461C
:10499000054661B101290AD0022908D0032922D095
:1049A00004293ED06FF0030407B02046F0BD05AAED
:1049B0000021FDF7A6FD0400F6D19DF81420314634
:1049C0002846FFF747FF80B2B0F5807F01D9FF226C
:1049D00001E0401EC2B2A5F8D8204621284601F0C9
:1049E00017FB0446E0E705AA0021FDF78AFD04460F
:1049F0009DF8142031462846FFF72CFF80B2FFF7C0
:104A000014FFADF808000246A5F8D800002CCBD161
:104A10005121284601F007FB0400C5D1C5F8E46028
:104A2000C2E703A9FEF7F7FA9DF80F00002798B137
:104A300005AA00212846FDF764FD0400B4D102AAAE
:104A40005121284601F031FB0446BDF80800FFF76C
:104A5000FBFE87B2002CA7D105AA01212846FDF74D
:104A600050FD0400A0D19DF8142031462846FFF7E0
:104A7000F1FE3844FFF7D9FE02467121284601F0C5
:104A8000D2FA040090D1C5F8DC608DE72DE9FF4132
:104A9000074600208DF80C0014460E46D0076FF034
:104AA000030571D116B1012E0DD0B2E00C2C6BD3E1
:104AB000122C69D80C2C13D00E2C13D0102C13D020
:104AC000122C13D0A5E0082CF1D30E2CF1D8082C11
:104AD00017D00A2C44D00C2C57D00E2C69D098E05B
:104AE000182204E0302202E0402200E05022572148
:104AF000384601F08DFA08225621384601F088FA2E
:104B000085E010224821384601F082FA0822472128
:104B1000384601F07DFA804602223221384601F003
:104B200077FA40EA08080C223021384601F070FA82
:104B300040EA08080122FF21384601F069FA40EAFC
:104B4000080830221146384601F062FA40EA0808A7
:104B50000022FF21384601F05BFA40EA080056E0E7
:104B600028224821384601F053FA082247213846C6
:104B700001F04EFA804603223221384601F048FA0D
:104B800040EA0808092227E04AE03822482138464E
:104B900001F03EFA08224721384601F039FA8046F2
:104BA00003223221384601F033FA40EA080808228D
:104BB00012E048221146384601F02AFA082247211D
:104BC000384601F025FA804603223221384601F0AA
:104BD0001FFA40EA080807223021384601F018FA87
:104BE00040EA08080122FF21384601F011FA40EAA4
:104BF000080820223021384601F00AFA40EA080865
:104C00000022FF21384601F003FA40EA080000289C
:104C100007D12046FFF721FB804626B1012E22D086
:104C2000284604B0AFE601AA03213846FFF734FE58
:104C3000B0B902AA02213846FFF72EFE80B94246DB
:104C40005021384601F0E4F950B903213846019A61
:104C5000FFF79BFE20B902213846029AFFF795FE26
:104C600087F8E84012E06A4604213846FFF714FE50
:104C700050B942467021384601F0CAF920B90421E2
:104C80003846009AFFF781FE87F8E0400028C8D137
:104C900038467969FDF737FC0028C2D1012300228C
:104CA00003A93846FFF75CF8BBE738B5144621B1D5
:104CB000012905D06FF003010DE06A46502101E0A3
:104CC0006A46702101F0E6F9010004D19DF8000068
:104CD000FFF7BFFA2070084638BD2DE9FF410746AF
:104CE0004FF4FA6002900020039044F620600E46D4
:104CF0006FF0030581424DD3A6F636346946384637
:104D0000FEF789F900288CD19DF8001029B99DF88B
:104D1000011011B99DF8021001B302AA0221384610
:104D2000FFF7BAFD002834D19DF8001029B102998F
:104D300001F24E21A1422DD2641A9DF8021021B138
:104D4000029901F2B221490005E09DF8011029B154
:104D5000029901F52571A1421CD2641A9DF8031035
:104D600061B103AA03213846FFF796FD039901F5C7
:104D70002571A1420ED2641A00280AD19DF80410B0
:104D8000002906D0A4F2262204213846FFF7FDFDB3
:104D90007E6146E7284644E730B585B005464FF4C6
:104DA000FA6002900020039040F6363008600C460E
:104DB00069462846FEF72FF900284DD19DF80010CE
:104DC00029B99DF8011011B99DF8021011B302AA7A
:104DD00002212846FFF760FD00283DD19DF8001014
:104DE00029B10299226801F24E21114421609DF8F7
:104DF000021031B10299226801F2B22102EB4101A5
:104E000007E09DF8011029B10299226801F525718A
:104E1000114421609DF8031061B103AA03212846C3
:104E2000FFF73AFD0399226801F5257111442160CD
:104E3000002811D19DF8041061B104AA042128466C
:104E4000FFF72AFD0499226801F22621114421600E
:104E5000002801D12168696105B030BDF8B5074669
:104E600000200D460446061F13E0CBB2641CFF2B46
:104E700005D0042B0CD8295D00206A4639E0295D55
:104E8000641C61B1012912D0022918D003291ED057
:104E90003046295D002901D00028E6D0F8BD2A5D02
:104EA000641C295D01EB0221A7F8341116E0295D8D
:104EB000641C2A5D02EB0121A7F836110EE02A5D81
:104EC000641C295D01EB0221A7F8381106E0295D79
:104ED000641C2A5D02EB0121A7F83C11641C295DCA
:104EE0000029C2D1F8BD00BF15F804C002F800C007
:104EF000401C641C9842F7DB384601F06BF8C8E7A9
:104F0000F8B5064600200D46106014466946304646
:104F1000FEF71AF9002809D19DF80010002905D0E4
:104F2000A98A326A51438031090A2160F8BD38B537
:104F30001446CA6822606A46FFF7E2FF002803D1E0
:104F40002168009A1144216038BDF0B50446DDE9BE
:104F5000060CB4F85451D4F8584100276C438034FF
:104F6000240ADDF814E0089E6C433D4652B18902E4
:104F700001EB5201B1FBF2F101EB4101494301F5B3
:104F800000410D0C03FB0EF303F50043190C00F573
:104F90000042120C0623D21CB2FBF3F24943C2EBCF
:104FA000C202B2F5803F01D3FA4808E0C01CB0FB52
:104FB000F3F0C0EBC00000F50040000C4043084493
:104FC00000EB5C00B0FBFCF08003FE227F30B0FB06
:104FD000F2F068434FF47A7100F5FA70B0FBF1F02B
:104FE000000100F5FA70B0FBF1F5402004F120015A
:104FF000B1FBF0F0FFF736F9844625B104EB55001C
:10500000B0FBF5F000E00020FFF72CF9C6F800C077
:10501000844500D930603846F0BD2DE9FF4F87B098
:105020000546006A06900F4608694FF47A714843B6
:10503000000C0290F8680590DFF85CA34FF4481666
:1050400004AA39462846FFF772FF06AA39462846C1
:10505000FFF756FF80464FF47A710498069C484348
:1050600000F500404C434FEA104CB44200D934469E
:10507000B8F1000074D1D5F8DC00009095F8E0603C
:10508000014632462846FFF7E5FBD5F8E4B08146F5
:1050900095F8E82059462846FFF7DCFB0146032037
:1050A000082E00D1022049444143C8024FF47A71CE
:1050B00000F5FA70B0FBF1F040F27762504300F572
:1050C000FA70B0FBF1F904988030010A01FB09F095
:1050D0008030060A08020490BCF1000F01D04EB1E6
:1050E00009E00999C1F800A0C5F840A10A9800217B
:1050F00001609BE001264FF4487001900298A74997
:105100000004B0FBFCF0884200D908464FF4167149
:1051100000FB01F806EB46008000FFF7A3F8400013
:10512000029039899E48624241434FEA0C4000EBAD
:1051300042024FF47A70431002F5FA7203EB0C430B
:10514000B2FBF0F2B3FBF0F31002B0FBF3F0002877
:1051500000DA40423A7E00021AB14FF480370FE085
:1051600065E041F25C22B1FBF2F1C0F580304843CA
:1051700000F50040000C00F5803040084043870BEC
:105180004FF4487107FB01F000F50040000C08F5F2
:1051900000414043090C01FB0100FFF763F80004E4
:1051A00064213230B0FBF1F10298B1FBF0F040F62F
:1051B000B531484341F2883108444900B0FBF1F46D
:1051C0004FF47040844200D9044600984FF47A7C32
:1051D000584400F5FA70B0FBFCF04FF4C81101EB35
:1051E0005001B1FBF0F0FFF73DF8000200F5FA7056
:1051F000B0FBFCF0644340432044FFF733F84FF426
:105200007A7148430EB1504500D95046099908605B
:10521000C5F840010A98019B03908DE80803DDE979
:1052200004123B462846FFF790FE804640460BB0EE
:10523000BDE8F08F2DE9FF4F8BB04FF00009199DAD
:105240008DF800909A460646C8464F468DF8049061
:105250008DF808908DF80C90ADF81090C1F3C30450
:10526000CDF81490BCB1052C15D0072C13D00C2C04
:1052700011D00D2C0FD00E2C0DD00F2C0BD00020E8
:1052800083466A4600213046FDF7BBF99DF80010C1
:10529000C9B110B11DE00120F2E705AB06AA304606
:1052A0001899FFF7BAFEA0B91899059807AA48817E
:1052B00000213046FDF7B1F9079921B1069A8A42DB
:1052C00001D94FF0010920B902AA02213046FDF7A9
:1052D00098F99DF8081011B338BB08AA022130468E
:1052E000FDF79BF980B90122FF21304600F090FEC6
:1052F00050B904AAB621304600F0D7FE20B90022EA
:10530000FF21304600F084FEBDF810104902C6F8B7
:105310004811089A1AB1914201D94FF0010820B9F9
:1053200003AA03213046FDF76CF99DF80C1091B1EA
:1053300090B9BAF1000F12D00D980102B1FBFAF04A
:10534000824609AA03213046FDF767F9099911B190
:105350008A4500D2012720B12878D0B136E000205C
:10536000EEE7BBF1000F01D0FF201CE0012C19D0AB
:10537000022C17D0032C15D0062C16D0092C14D0D3
:10538000082C04D00A2C02D0B8F1000F0FD0032053
:1053900009E018E00000F0FFAE878F026666660045
:1053A0009A9906000520287010E00420FBE7042CE1
:1053B00000D00FB10220F6E7B9F1000F01D00120B3
:1053C000F1E70020287018990020488101AA0121E6
:1053D0003046FDF716F9002824D19DF8001011B1D0
:1053E0005FEA090100D0012186F82E10042C14D0A8
:1053F0009DF8041089B1002186F82F109DF808103F
:1054000011B15FEA080100D0012186F830109DF843
:105410000C1001B11FB1012102E00121ECE70021D4
:1054200086F831100FB003E72DE9F0410F4615461D
:1054300004460221FEF75DFF06000BD194F8F1004F
:1054400058B194F8F200387004F1F30105F140000E
:1054500001F01CF83046BDE8F0810020387085F876
:105460004000F7E77CB50C460A46054601A9FFF760
:10547000DBFF00282BD19DF8040028B1222805D895
:10548000202805D073A106E075A104E0272801D2E9
:1054900076A100E078A1204600F0F8FF7CA104F19D
:1054A000200000F0F3FF04F16002C021284600F064
:1054B000F1FD00280BD16A46C221284600F0EAFD22
:1054C000012104F8611F9DF80010090961707CBD7D
:1054D00010B500240B460F282BD2DFE800F0080A95
:1054E00010121416181A1C1E2022242628006AA145
:1054F00000E06CA1184600F0C9FF204610BD71A164
:10550000F8E777A1F6E77BA1F4E780A1F2E783A1B2
:10551000F0E788A1EEE78EA1ECE790A1EAE795A17C
:10552000E8E798A1E6E79BA1E4E7A1A1E2E7A7A14C
:10553000E0E7AEA1DEE710B500240B46062814D242
:10554000DFE800F003050B0D0F11ADA100E0B0A1E5
:10555000184600F09BFF204610BDB1A1F8E7B4A1AA
:10556000F6E7B7A1F4E7BAA1F2E7BDA1F0E710B5FD
:1055700000240B4610F1080F3DD01DDC10F1140F74
:1055800041D00CDC10F1630F45D010F1320F40D048
:1055900010F1280F3BD010F11E0F3ED135E010F175
:1055A0000C0F22D010F10B0F2BD010F10A0F26D0C8
:1055B00010F1090F31D120E0C01D08282DD2DFE8FD
:1055C00000F0181612100E0C0604A9A100E0ABA101
:1055D000184600F05BFF204610BDAFA1F8E7B3A16D
:1055E000F6E7B6A1F4E7BCA1F2E7C0A1F0E7C5A1D8
:1055F000EEE7C7A1ECE7CAA1EAE7D0A1E8E7D4A1AA
:10560000E6E7D8A1E4E7DEA1E2E7E3A1E0E7E8A16D
:10561000DEE7EDA1DCE7F3A1DAE774A1D8E710B586
:1056200000240A46032811D005DC60B101280CD003
:10563000022806D1F8E1042809D0622801D06328A5
:1056400006D0EEA1EBE1F1A1E9E1E7E1EEE1EFE166
:10565000F0E10000564C35334C30582054533100A3
:10566000564C35334C30582054533000564C35335B
:105670004C30582054533200564C35334C3058205F
:10568000455331206F72206C617465720000000018
:10569000564C35334C3058004E6F20557064617451
:1056A00065000000564353454C20436F6E74696E8D
:1056B000756974792054657374204661696C7572DC
:1056C00065000000564353454C205761746368647D
:1056D0006F672054657374204661696C757265004C
:1056E0004E6F205648562056616C756520666F7562
:1056F0006E6400004D535243204E6F205461726718
:105700006574204572726F7200000000534E522083
:10571000436865636B2045786974000052616E6769
:105720006520506861736520436865636B2045722E
:10573000726F72005369676D612054687265736897
:105740006F6C6420436865636B204572726F7200F2
:10575000544343204572726F7200000050686173B9
:105760006520436F6E73697374656E63792045724B
:10577000726F72004D696E20436C697020457272C1
:105780006F72000052616E676520436F6D706C65CB
:105790007465000052616E676520416C676F20552B
:1057A0006E646572666C6F77204572726F7200006E
:1057B00052616E676520416C676F204F7665726C31
:1057C0006F77204572726F720000000052616E6741
:1057D000652049676E6F7265205468726573686FE3
:1057E0006C64204572726F7200000000556E6B6E23
:1057F0006F776E204572726F7220436F6465000090
:1058000052616E67652056616C696420202000003B
:105810005369676D61204661696C2020202000007B
:105820005369676E616C204661696C20202000001E
:105830004D696E2052616E6765204661696C00009B
:105840005068617365204661696C2020202000004B
:105850004861726477617265204661696C2000005E
:105860004E6F205570646174652020202020000058
:105870004E6F204572726F720000000043616C69C8
:1058800062726174696F6E205761726E696E672013
:105890004572726F720000004D696E20636C697012
:1058A000706564206572726F72000000556E6465E9
:1058B00066696E6564206572726F7200496E76610A
:1058C0006C696420706172616D65746572732065C6
:1058D00072726F72000000004E6F742073757070EA
:1058E0006F72746564206572726F7200496E7465C0
:1058F0007272757074206E6F7420436C656172658E
:105900006400000052616E6765206572726F7200FC
:1059100054696D65206F7574206572726F72000036
:105920004D6F6465206E6F7420737570706F727444
:105930006564206572726F720000000042756666D1
:10594000657220746F6F20736D616C6C00000000D5
:105950004750494F206E6F74206578697374696E83
:10596000670000004750494F2066756E6374206ED3
:105970006F7420737570706F72746564000000003E
:10598000436F6E74726F6C20496E746572666163EA
:1059900065204572726F7200496E76616C69642091
:1059A000436F6D6D616E64204572726F720000000E
:1059B0004469766973696F6E206279207A65726FC7
:1059C000204572726F7200005265666572656E6383
:1059D00065205370616420496E6974204572726F4E
:1059E000720000004E6F7420696D706C656D656E9D
:1059F000746564206572726F72000000554E4B4EE4
:105A00004F574E205374617465000000504F574546
:105A100052444F574E2053746174650022A11046C2
:105A200000F034FD204610BD26A1F8E729A1F6E7D5
:105A30002BA1F4E72EA1F2E710B500240B460528B0
:105A400011D2DFE800F003050A0C0E002BA100E0E4
:105A50002BA1184600F01AFD07E02AA1F9E72BA1B7
:105A6000F7E72DA1F5E76FF00304204610BD10B550
:105A700000241046062913D2DFE801F003050A0CC2
:105A80000E1028A100E02CA100F000FD204610BD62
:105A90002FA1F9E732A1F7E737A1F5E73BA1F3E73B
:105AA000AFF2B821F0E700005761697420666F72A9
:105AB00020737461746963696E69742053746174CE
:105AC000650000005354414E4442592053746174A0
:105AD0006500000049444C45205374617465000022
